{
  "_format": "hh-sol-artifact-1",
  "contractName": "VotingSystem",
  "sourceName": "contracts/VotingSystem.sol",
  "abi": [
    {
      "inputs": [],
      "stateMutability": "nonpayable",
      "type": "constructor"
    },
    {
      "anonymous": false,
      "inputs": [
        {
          "indexed": false,
          "internalType": "uint256",
          "name": "proposalId",
          "type": "uint256"
        },
        {
          "indexed": false,
          "internalType": "string",
          "name": "title",
          "type": "string"
        },
        {
          "indexed": false,
          "internalType": "uint256",
          "name": "endTime",
          "type": "uint256"
        }
      ],
      "name": "ProposalCreated",
      "type": "event"
    },
    {
      "anonymous": false,
      "inputs": [
        {
          "indexed": false,
          "internalType": "address",
          "name": "voter",
          "type": "address"
        },
        {
          "indexed": false,
          "internalType": "uint256",
          "name": "proposalId",
          "type": "uint256"
        }
      ],
      "name": "Voted",
      "type": "event"
    },
    {
      "inputs": [
        {
          "internalType": "uint256",
          "name": "_proposalId",
          "type": "uint256"
        }
      ],
      "name": "closeProposal",
      "outputs": [],
      "stateMutability": "nonpayable",
      "type": "function"
    },
    {
      "inputs": [
        {
          "internalType": "string",
          "name": "_title",
          "type": "string"
        },
        {
          "internalType": "string",
          "name": "_description",
          "type": "string"
        },
        {
          "internalType": "uint256",
          "name": "_durationInMinutes",
          "type": "uint256"
        }
      ],
      "name": "createProposal",
      "outputs": [],
      "stateMutability": "nonpayable",
      "type": "function"
    },
    {
      "inputs": [
        {
          "internalType": "uint256",
          "name": "_proposalId",
          "type": "uint256"
        }
      ],
      "name": "getProposal",
      "outputs": [
        {
          "internalType": "string",
          "name": "title",
          "type": "string"
        },
        {
          "internalType": "string",
          "name": "description",
          "type": "string"
        },
        {
          "internalType": "uint256",
          "name": "voteCount",
          "type": "uint256"
        },
        {
          "internalType": "uint256",
          "name": "endTime",
          "type": "uint256"
        },
        {
          "internalType": "bool",
          "name": "isActive",
          "type": "bool"
        }
      ],
      "stateMutability": "view",
      "type": "function"
    },
    {
      "inputs": [],
      "name": "getProposalsCount",
      "outputs": [
        {
          "internalType": "uint256",
          "name": "",
          "type": "uint256"
        }
      ],
      "stateMutability": "view",
      "type": "function"
    },
    {
      "inputs": [],
      "name": "owner",
      "outputs": [
        {
          "internalType": "address",
          "name": "",
          "type": "address"
        }
      ],
      "stateMutability": "view",
      "type": "function"
    },
    {
      "inputs": [
        {
          "internalType": "uint256",
          "name": "",
          "type": "uint256"
        }
      ],
      "name": "proposals",
      "outputs": [
        {
          "internalType": "string",
          "name": "title",
          "type": "string"
        },
        {
          "internalType": "string",
          "name": "description",
          "type": "string"
        },
        {
          "internalType": "uint256",
          "name": "voteCount",
          "type": "uint256"
        },
        {
          "internalType": "uint256",
          "name": "endTime",
          "type": "uint256"
        },
        {
          "internalType": "bool",
          "name": "isActive",
          "type": "bool"
        }
      ],
      "stateMutability": "view",
      "type": "function"
    },
    {
      "inputs": [
        {
          "internalType": "uint256",
          "name": "_proposalId",
          "type": "uint256"
        }
      ],
      "name": "vote",
      "outputs": [],
      "stateMutability": "nonpayable",
      "type": "function"
    },
    {
      "inputs": [
        {
          "internalType": "address",
          "name": "",
          "type": "address"
        },
        {
          "internalType": "uint256",
          "name": "",
          "type": "uint256"
        }
      ],
      "name": "votes",
      "outputs": [
        {
          "internalType": "bool",
          "name": "hasVoted",
          "type": "bool"
        },
        {
          "internalType": "uint256",
          "name": "proposalId",
          "type": "uint256"
        }
      ],
      "stateMutability": "view",
      "type": "function"
    }
  ],
  "bytecode": "0x6080604052348015600f57600080fd5b50336000806101000a81548173ffffffffffffffffffffffffffffffffffffffff021916908373ffffffffffffffffffffffffffffffffffffffff1602179055506117498061005f6000396000f3fe608060405234801561001057600080fd5b50600436106100885760003560e01c80638da5cb5b1161005b5780638da5cb5b1461011557806398e527d3146101335780639f2524ee14610151578063c7f758a81461018257610088565b80630121b93f1461008d578063013cf08b146100a95780630386a016146100dd5780630ce0ebf4146100f9575b600080fd5b6100a760048036038101906100a29190610bbc565b6101b6565b005b6100c360048036038101906100be9190610bbc565b610483565b6040516100d4959493929190610ca3565b60405180910390f35b6100f760048036038101906100f29190610bbc565b6105e6565b005b610113600480360381019061010e9190610e39565b6106fc565b005b61011d610903565b60405161012a9190610f05565b60405180910390f35b61013b610927565b6040516101489190610f20565b60405180910390f35b61016b60048036038101906101669190610f67565b610934565b604051610179929190610fa7565b60405180910390f35b61019c60048036038101906101979190610bbc565b610972565b6040516101ad959493929190610ca3565b60405180910390f35b60018054905081106101fd576040517f08c379a00000000000000000000000000000000000000000000000000000000081526004016101f49061101c565b60405180910390fd5b600181815481106102115761021061103c565b5b906000526020600020906005020160040160009054906101000a900460ff1661026f576040517f08c379a0000000000000000000000000000000000000000000000000000000008152600401610266906110b7565b60405180910390fd5b600181815481106102835761028261103c565b5b90600052602060002090600502016003015442106102d6576040517f08c379a00000000000000000000000000000000000000000000000000000000081526004016102cd90611123565b60405180910390fd5b600260003373ffffffffffffffffffffffffffffffffffffffff1673ffffffffffffffffffffffffffffffffffffffff168152602001908152602001600020600082815260200190815260200160002060000160009054906101000a900460ff1615610377576040517f08c379a000000000000000000000000000000000000000000000000000000000815260040161036e9061118f565b60405180910390fd5b6001818154811061038b5761038a61103c565b5b906000526020600020906005020160020160008154809291906103ad906111de565b9190505550604051806040016040528060011515815260200182815250600260003373ffffffffffffffffffffffffffffffffffffffff1673ffffffffffffffffffffffffffffffffffffffff168152602001908152602001600020600083815260200190815260200160002060008201518160000160006101000a81548160ff021916908315150217905550602082015181600101559050507f4d99b957a2bc29a30ebd96a7be8e68fe50a3c701db28a91436490b7d53870ca43382604051610478929190611226565b60405180910390a150565b6001818154811061049357600080fd5b90600052602060002090600502016000915090508060000180546104b69061127e565b80601f01602080910402602001604051908101604052809291908181526020018280546104e29061127e565b801561052f5780601f106105045761010080835404028352916020019161052f565b820191906000526020600020905b81548152906001019060200180831161051257829003601f168201915b5050505050908060010180546105449061127e565b80601f01602080910402602001604051908101604052809291908181526020018280546105709061127e565b80156105bd5780601f10610592576101008083540402835291602001916105bd565b820191906000526020600020905b8154815290600101906020018083116105a057829003601f168201915b5050505050908060020154908060030154908060040160009054906101000a900460ff16905085565b60008054906101000a900473ffffffffffffffffffffffffffffffffffffffff1673ffffffffffffffffffffffffffffffffffffffff163373ffffffffffffffffffffffffffffffffffffffff1614610674576040517f08c379a000000000000000000000000000000000000000000000000000000000815260040161066b90611321565b60405180910390fd5b60018054905081106106bb576040517f08c379a00000000000000000000000000000000000000000000000000000000081526004016106b29061101c565b60405180910390fd5b6000600182815481106106d1576106d061103c565b5b906000526020600020906005020160040160006101000a81548160ff02191690831515021790555050565b60008054906101000a900473ffffffffffffffffffffffffffffffffffffffff1673ffffffffffffffffffffffffffffffffffffffff163373ffffffffffffffffffffffffffffffffffffffff161461078a576040517f08c379a000000000000000000000000000000000000000000000000000000000815260040161078190611321565b60405180910390fd5b600081116107cd576040517f08c379a00000000000000000000000000000000000000000000000000000000081526004016107c49061138d565b60405180910390fd5b60016040518060a0016040528085815260200184815260200160008152602001603c846107fa91906113ad565b4261080591906113ef565b8152602001600115158152509080600181540180825580915050600190039060005260206000209060050201600090919091909150600082015181600001908161084f91906115cf565b50602082015181600101908161086591906115cf565b50604082015181600201556060820151816003015560808201518160040160006101000a81548160ff02191690831515021790555050507ff5dc0da9afa6d080780a49fd8c680f03d2ddf3c067cd6d0c85360c096644d2d3600180805490506108ce91906116a1565b84603c846108dc91906113ad565b426108e791906113ef565b6040516108f6939291906116d5565b60405180910390a1505050565b60008054906101000a900473ffffffffffffffffffffffffffffffffffffffff1681565b6000600180549050905090565b6002602052816000526040600020602052806000526040600020600091509150508060000160009054906101000a900460ff16908060010154905082565b606080600080600060018054905086106109c1576040517f08c379a00000000000000000000000000000000000000000000000000000000081526004016109b89061101c565b60405180910390fd5b6000600187815481106109d7576109d661103c565b5b90600052602060002090600502016040518060a0016040529081600082018054610a009061127e565b80601f0160208091040260200160405190810160405280929190818152602001828054610a2c9061127e565b8015610a795780601f10610a4e57610100808354040283529160200191610a79565b820191906000526020600020905b815481529060010190602001808311610a5c57829003601f168201915b50505050508152602001600182018054610a929061127e565b80601f0160208091040260200160405190810160405280929190818152602001828054610abe9061127e565b8015610b0b5780601f10610ae057610100808354040283529160200191610b0b565b820191906000526020600020905b815481529060010190602001808311610aee57829003601f168201915b5050505050815260200160028201548152602001600382015481526020016004820160009054906101000a900460ff161515151581525050905080600001518160200151826040015183606001518460800151955095509550955095505091939590929450565b6000604051905090565b600080fd5b600080fd5b6000819050919050565b610b9981610b86565b8114610ba457600080fd5b50565b600081359050610bb681610b90565b92915050565b600060208284031215610bd257610bd1610b7c565b5b6000610be084828501610ba7565b91505092915050565b600081519050919050565b600082825260208201905092915050565b60005b83811015610c23578082015181840152602081019050610c08565b60008484015250505050565b6000601f19601f8301169050919050565b6000610c4b82610be9565b610c558185610bf4565b9350610c65818560208601610c05565b610c6e81610c2f565b840191505092915050565b610c8281610b86565b82525050565b60008115159050919050565b610c9d81610c88565b82525050565b600060a0820190508181036000830152610cbd8188610c40565b90508181036020830152610cd18187610c40565b9050610ce06040830186610c79565b610ced6060830185610c79565b610cfa6080830184610c94565b9695505050505050565b600080fd5b600080fd5b7f4e487b7100000000000000000000000000000000000000000000000000000000600052604160045260246000fd5b610d4682610c2f565b810181811067ffffffffffffffff82111715610d6557610d64610d0e565b5b80604052505050565b6000610d78610b72565b9050610d848282610d3d565b919050565b600067ffffffffffffffff821115610da457610da3610d0e565b5b610dad82610c2f565b9050602081019050919050565b82818337600083830152505050565b6000610ddc610dd784610d89565b610d6e565b905082815260208101848484011115610df857610df7610d09565b5b610e03848285610dba565b509392505050565b600082601f830112610e2057610e1f610d04565b5b8135610e30848260208601610dc9565b91505092915050565b600080600060608486031215610e5257610e51610b7c565b5b600084013567ffffffffffffffff811115610e7057610e6f610b81565b5b610e7c86828701610e0b565b935050602084013567ffffffffffffffff811115610e9d57610e9c610b81565b5b610ea986828701610e0b565b9250506040610eba86828701610ba7565b9150509250925092565b600073ffffffffffffffffffffffffffffffffffffffff82169050919050565b6000610eef82610ec4565b9050919050565b610eff81610ee4565b82525050565b6000602082019050610f1a6000830184610ef6565b92915050565b6000602082019050610f356000830184610c79565b92915050565b610f4481610ee4565b8114610f4f57600080fd5b50565b600081359050610f6181610f3b565b92915050565b60008060408385031215610f7e57610f7d610b7c565b5b6000610f8c85828601610f52565b9250506020610f9d85828601610ba7565b9150509250929050565b6000604082019050610fbc6000830185610c94565b610fc96020830184610c79565b9392505050565b7f496e76616c69642070726f706f73616c20494400000000000000000000000000600082015250565b6000611006601383610bf4565b915061101182610fd0565b602082019050919050565b6000602082019050818103600083015261103581610ff9565b9050919050565b7f4e487b7100000000000000000000000000000000000000000000000000000000600052603260045260246000fd5b7f50726f706f73616c206973206e6f742061637469766500000000000000000000600082015250565b60006110a1601683610bf4565b91506110ac8261106b565b602082019050919050565b600060208201905081810360008301526110d081611094565b9050919050565b7f566f74696e6720706572696f642068617320656e646564000000000000000000600082015250565b600061110d601783610bf4565b9150611118826110d7565b602082019050919050565b6000602082019050818103600083015261113c81611100565b9050919050565b7f416c726561647920766f74656400000000000000000000000000000000000000600082015250565b6000611179600d83610bf4565b915061118482611143565b602082019050919050565b600060208201905081810360008301526111a88161116c565b9050919050565b7f4e487b7100000000000000000000000000000000000000000000000000000000600052601160045260246000fd5b60006111e982610b86565b91507fffffffffffffffffffffffffffffffffffffffffffffffffffffffffffffffff820361121b5761121a6111af565b5b600182019050919050565b600060408201905061123b6000830185610ef6565b6112486020830184610c79565b9392505050565b7f4e487b7100000000000000000000000000000000000000000000000000000000600052602260045260246000fd5b6000600282049050600182168061129657607f821691505b6020821081036112a9576112a861124f565b5b50919050565b7f4f6e6c79206f776e65722063616e2063616c6c20746869732066756e6374696f60008201527f6e00000000000000000000000000000000000000000000000000000000000000602082015250565b600061130b602183610bf4565b9150611316826112af565b604082019050919050565b6000602082019050818103600083015261133a816112fe565b9050919050565b7f4475726174696f6e206d7573742062652067726561746572207468616e203000600082015250565b6000611377601f83610bf4565b915061138282611341565b602082019050919050565b600060208201905081810360008301526113a68161136a565b9050919050565b60006113b882610b86565b91506113c383610b86565b92508282026113d181610b86565b915082820484148315176113e8576113e76111af565b5b5092915050565b60006113fa82610b86565b915061140583610b86565b925082820190508082111561141d5761141c6111af565b5b92915050565b60008190508160005260206000209050919050565b60006020601f8301049050919050565b600082821b905092915050565b6000600883026114857fffffffffffffffffffffffffffffffffffffffffffffffffffffffffffffffff82611448565b61148f8683611448565b95508019841693508086168417925050509392505050565b6000819050919050565b60006114cc6114c76114c284610b86565b6114a7565b610b86565b9050919050565b6000819050919050565b6114e6836114b1565b6114fa6114f2826114d3565b848454611455565b825550505050565b600090565b61150f611502565b61151a8184846114dd565b505050565b5b8181101561153e57611533600082611507565b600181019050611520565b5050565b601f8211156115835761155481611423565b61155d84611438565b8101602085101561156c578190505b61158061157885611438565b83018261151f565b50505b505050565b600082821c905092915050565b60006115a660001984600802611588565b1980831691505092915050565b60006115bf8383611595565b9150826002028217905092915050565b6115d882610be9565b67ffffffffffffffff8111156115f1576115f0610d0e565b5b6115fb825461127e565b611606828285611542565b600060209050601f8311600181146116395760008415611627578287015190505b61163185826115b3565b865550611699565b601f19841661164786611423565b60005b8281101561166f5784890151825560018201915060208501945060208101905061164a565b8683101561168c5784890151611688601f891682611595565b8355505b6001600288020188555050505b505050505050565b60006116ac82610b86565b91506116b783610b86565b92508282039050818111156116cf576116ce6111af565b5b92915050565b60006060820190506116ea6000830186610c79565b81810360208301526116fc8185610c40565b905061170b6040830184610c79565b94935050505056fea26469706673582212202002719f82346204eb3c75d6ddc0639eee3718b6cdeb77a7191ed7a9595cc97964736f6c634300081c0033",
  "linkReferences": {},
  "deployedLinkReferences": {}
}